{
  "_format": "hh-sol-artifact-1",
  "contractName": "Charity",
  "sourceName": "contracts/Contract.sol",
  "abi": [
    {
      "anonymous": false,
      "inputs": [
        {
          "indexed": false,
          "internalType": "address",
          "name": "donorAddress",
          "type": "address"
        },
        {
          "indexed": false,
          "internalType": "address",
          "name": "receiverAddress",
          "type": "address"
        },
        {
          "indexed": false,
          "internalType": "uint256",
          "name": "amount",
          "type": "uint256"
        }
      ],
      "name": "DonationMade",
      "type": "event"
    },
    {
      "anonymous": false,
      "inputs": [
        {
          "indexed": false,
          "internalType": "address",
          "name": "receiverAddress",
          "type": "address"
        },
        {
          "indexed": false,
          "internalType": "uint256",
          "name": "targetAmount",
          "type": "uint256"
        }
      ],
      "name": "ReceiverAdded",
      "type": "event"
    },
    {
      "anonymous": false,
      "inputs": [
        {
          "indexed": false,
          "internalType": "uint256",
          "name": "",
          "type": "uint256"
        },
        {
          "indexed": false,
          "internalType": "uint256",
          "name": "",
          "type": "uint256"
        }
      ],
      "name": "durationChanged",
      "type": "event"
    },
    {
      "anonymous": false,
      "inputs": [
        {
          "indexed": false,
          "internalType": "address",
          "name": "receiverAddress",
          "type": "address"
        },
        {
          "indexed": false,
          "internalType": "uint256",
          "name": "amount",
          "type": "uint256"
        }
      ],
      "name": "programCanceled",
      "type": "event"
    },
    {
      "anonymous": false,
      "inputs": [
        {
          "indexed": false,
          "internalType": "address",
          "name": "receiverAddress",
          "type": "address"
        },
        {
          "indexed": false,
          "internalType": "uint256",
          "name": "amount",
          "type": "uint256"
        }
      ],
      "name": "programCompleted",
      "type": "event"
    },
    {
      "inputs": [
        {
          "internalType": "address",
          "name": "",
          "type": "address"
        }
      ],
      "name": "addressExists",
      "outputs": [
        {
          "internalType": "bool",
          "name": "",
          "type": "bool"
        }
      ],
      "stateMutability": "view",
      "type": "function"
    },
    {
      "inputs": [
        {
          "internalType": "uint256",
          "name": "",
          "type": "uint256"
        }
      ],
      "name": "addresses",
      "outputs": [
        {
          "internalType": "address",
          "name": "",
          "type": "address"
        }
      ],
      "stateMutability": "view",
      "type": "function"
    },
    {
      "inputs": [],
      "name": "cancelProgram",
      "outputs": [
        {
          "internalType": "bool",
          "name": "",
          "type": "bool"
        }
      ],
      "stateMutability": "payable",
      "type": "function"
    },
    {
      "inputs": [],
      "name": "completeProgram",
      "outputs": [
        {
          "internalType": "bool",
          "name": "",
          "type": "bool"
        }
      ],
      "stateMutability": "nonpayable",
      "type": "function"
    },
    {
      "inputs": [
        {
          "internalType": "address",
          "name": "_owner",
          "type": "address"
        },
        {
          "internalType": "string",
          "name": "title",
          "type": "string"
        },
        {
          "internalType": "string",
          "name": "description",
          "type": "string"
        },
        {
          "internalType": "string",
          "name": "image",
          "type": "string"
        },
        {
          "internalType": "uint256",
          "name": "_targetAmount",
          "type": "uint256"
        },
        {
          "internalType": "uint256",
          "name": "deadline",
          "type": "uint256"
        }
      ],
      "name": "createProgram",
      "outputs": [],
      "stateMutability": "nonpayable",
      "type": "function"
    },
    {
      "inputs": [],
      "name": "getAllPrograms",
      "outputs": [
        {
          "components": [
            {
              "internalType": "address",
              "name": "receiverAddress",
              "type": "address"
            },
            {
              "internalType": "uint256",
              "name": "index",
              "type": "uint256"
            },
            {
              "internalType": "string",
              "name": "title",
              "type": "string"
            },
            {
              "internalType": "string",
              "name": "description",
              "type": "string"
            },
            {
              "internalType": "uint256",
              "name": "targetAmount",
              "type": "uint256"
            },
            {
              "internalType": "uint256",
              "name": "collectedAmount",
              "type": "uint256"
            },
            {
              "internalType": "string",
              "name": "image",
              "type": "string"
            },
            {
              "internalType": "uint256",
              "name": "deadline",
              "type": "uint256"
            },
            {
              "internalType": "bool",
              "name": "active",
              "type": "bool"
            }
          ],
          "internalType": "struct Charity.ProgramInfo[]",
          "name": "",
          "type": "tuple[]"
        }
      ],
      "stateMutability": "view",
      "type": "function"
    },
    {
      "inputs": [],
      "name": "getAllProgramsCount",
      "outputs": [
        {
          "internalType": "uint256",
          "name": "",
          "type": "uint256"
        }
      ],
      "stateMutability": "view",
      "type": "function"
    },
    {
      "inputs": [
        {
          "internalType": "address",
          "name": "receiverAddress",
          "type": "address"
        },
        {
          "internalType": "uint256",
          "name": "index",
          "type": "uint256"
        }
      ],
      "name": "getDonations",
      "outputs": [
        {
          "components": [
            {
              "internalType": "address",
              "name": "donor",
              "type": "address"
            },
            {
              "internalType": "uint256",
              "name": "amount",
              "type": "uint256"
            }
          ],
          "internalType": "struct Charity.Donation[]",
          "name": "",
          "type": "tuple[]"
        }
      ],
      "stateMutability": "view",
      "type": "function"
    },
    {
      "inputs": [
        {
          "internalType": "address",
          "name": "receiverAddress",
          "type": "address"
        },
        {
          "internalType": "uint256",
          "name": "index",
          "type": "uint256"
        }
      ],
      "name": "getProgram",
      "outputs": [
        {
          "components": [
            {
              "internalType": "address",
              "name": "receiverAddress",
              "type": "address"
            },
            {
              "internalType": "uint256",
              "name": "index",
              "type": "uint256"
            },
            {
              "internalType": "string",
              "name": "title",
              "type": "string"
            },
            {
              "internalType": "string",
              "name": "description",
              "type": "string"
            },
            {
              "internalType": "uint256",
              "name": "targetAmount",
              "type": "uint256"
            },
            {
              "internalType": "uint256",
              "name": "collectedAmount",
              "type": "uint256"
            },
            {
              "internalType": "string",
              "name": "image",
              "type": "string"
            },
            {
              "internalType": "uint256",
              "name": "deadline",
              "type": "uint256"
            },
            {
              "internalType": "bool",
              "name": "active",
              "type": "bool"
            }
          ],
          "internalType": "struct Charity.ProgramInfo",
          "name": "",
          "type": "tuple"
        }
      ],
      "stateMutability": "view",
      "type": "function"
    },
    {
      "inputs": [
        {
          "internalType": "address",
          "name": "",
          "type": "address"
        },
        {
          "internalType": "uint256",
          "name": "",
          "type": "uint256"
        }
      ],
      "name": "programs",
      "outputs": [
        {
          "internalType": "address",
          "name": "owner",
          "type": "address"
        },
        {
          "internalType": "string",
          "name": "title",
          "type": "string"
        },
        {
          "internalType": "string",
          "name": "description",
          "type": "string"
        },
        {
          "internalType": "uint256",
          "name": "targetAmount",
          "type": "uint256"
        },
        {
          "internalType": "uint256",
          "name": "collectedAmount",
          "type": "uint256"
        },
        {
          "internalType": "uint256",
          "name": "deadline",
          "type": "uint256"
        },
        {
          "internalType": "string",
          "name": "image",
          "type": "string"
        },
        {
          "internalType": "bool",
          "name": "active",
          "type": "bool"
        }
      ],
      "stateMutability": "view",
      "type": "function"
    },
    {
      "inputs": [
        {
          "internalType": "address",
          "name": "receiverAddress",
          "type": "address"
        }
      ],
      "name": "sendDonation",
      "outputs": [],
      "stateMutability": "payable",
      "type": "function"
    }
  ],
  "bytecode": "0x608060405234801561001057600080fd5b50611c4a806100206000396000f3fe60806040526004361061009c5760003560e01c8063c2114edf11610064578063c2114edf14610171578063cd5cec401461019e578063e45d34c9146101b1578063e66b446b146101d4578063edf26d9b146101f6578063f71c4ea61461022e57600080fd5b80634f58951e146100a1578063592fb924146100c35780635da7626e146100e05780639e003c2f14610114578063a502522214610141575b600080fd5b3480156100ad57600080fd5b506100c16100bc3660046116a8565b610243565b005b6100cb6105ec565b60405190151581526020015b60405180910390f35b3480156100ec57600080fd5b506101006100fb366004611753565b610882565b6040516100d79897969594939291906117c3565b34801561012057600080fd5b5061013461012f366004611753565b610a89565b6040516100d7919061183a565b34801561014d57600080fd5b506100cb61015c366004611892565b60016020526000908152604090205460ff1681565b34801561017d57600080fd5b5061019161018c366004611753565b610c9b565b6040516100d7919061195a565b6100c16101ac366004611892565b610fb1565b3480156101bd57600080fd5b506101c66112a3565b6040519081526020016100d7565b3480156101e057600080fd5b506101e9611311565b6040516100d7919061196d565b34801561020257600080fd5b506102166102113660046119cf565b61144e565b6040516001600160a01b0390911681526020016100d7565b34801561023a57600080fd5b506100cb611478565b85336102965760405162461bcd60e51b815260206004820152601860248201527f496e76616c69642072656365697665722061646472657373000000000000000060448201526064015b60405180910390fd5b60008651116102db5760405162461bcd60e51b8152602060048201526011602482015270151a5d1b19481a5cc81c995c5d5a5c9959607a1b604482015260640161028d565b600085511161032c5760405162461bcd60e51b815260206004820152601760248201527f4465736372697074696f6e206973207265717569726564000000000000000000604482015260640161028d565b81421061037b5760405162461bcd60e51b815260206004820181905260248201527f446561646c696e652073686f756c6420626520696e2074686520667574757265604482015260640161028d565b6001600084116103df5760405162461bcd60e51b815260206004820152602960248201527f54617267657420616d6f756e742073686f756c642062652067726561746572206044820152687468616e207a65726f60b81b606482015260840161028d565b6001600160a01b03821660009081526020819052604090208054156104935780546000908290610411906001906119fe565b8154811061042157610421611a11565b60009182526020909120600990910201600881015490915060ff16158061044c575080600501544210155b6104915760405162461bcd60e51b815260206004820152601660248201527550726f6772616d20697320696e2070726f677265737360501b604482015260640161028d565b505b805460018082018355600083815260209020600990920290910180546001600160a01b0319166001600160a01b038c161781559081016104d38a82611aaa565b50600281016104e28982611aaa565b50600381018690556000600482015560058101859055600681016105068882611aaa565b5060088101805460ff191660019081179091556001600160a01b0385166000908152602091909152604090205460ff1661059e576002805460018082019092557f405787fa12a823e0f2b7631cc41b3ba8828b3321ca811111fa75cd3aa3bb5ace0180546001600160a01b0319166001600160a01b0387169081179091556000908152602082905260409020805460ff191690911790555b604080516001600160a01b0386168152602081018890527fcc5646d2b5056370ad8ab59b52dc4674e8de23cbfb0e4c329066867a28ea00bf910160405180910390a150505050505050505050565b33600090815260208190526040812080546106195760405162461bcd60e51b815260040161028d90611b6a565b8054600090829061062c906001906119fe565b8154811061063c5761063c611a11565b906000526020600020906009020190508060050154421061066f5760405162461bcd60e51b815260040161028d90611b8e565b806004015434146106cc5760405162461bcd60e51b815260206004820152602160248201527f57726f6e672062616c616e636520746f20726566756e6420646f6e6174696f6e6044820152607360f81b606482015260840161028d565b600781015461071d5760405162461bcd60e51b815260206004820152601760248201527f4e6f20646f6e6174696f6e7320696e2070726f6772616d000000000000000000604482015260640161028d565b60078101545b801561082c578061073381611bbb565b915050600082600701828154811061074d5761074d611a11565b600091825260208220600290910201546007850180546001600160a01b039092169350908490811061078157610781611a11565b9060005260206000209060020201600101549050816001600160a01b03166108fc829081150290604051600060405180830381858888f193505050501580156107ce573d6000803e3d6000fd5b50808460040160008282546107e391906119fe565b9091555050600784018054806107fb576107fb611bd2565b60008281526020812060026000199093019283020180546001600160a01b0319168155600101559055506107239050565b5060088101805460ff1916905560048101546040805133815260208101929092527f74ea2043c4b3080538d6e38dff0a9eb14caa0d6ca5b1d175cdd761447d70941791015b60405180910390a160019250505090565b6000602052816000526040600020818154811061089e57600080fd5b6000918252602090912060099091020180546001820180546001600160a01b0390921694509192506108cf90611a27565b80601f01602080910402602001604051908101604052809291908181526020018280546108fb90611a27565b80156109485780601f1061091d57610100808354040283529160200191610948565b820191906000526020600020905b81548152906001019060200180831161092b57829003601f168201915b50505050509080600201805461095d90611a27565b80601f016020809104026020016040519081016040528092919081815260200182805461098990611a27565b80156109d65780601f106109ab576101008083540402835291602001916109d6565b820191906000526020600020905b8154815290600101906020018083116109b957829003601f168201915b5050505050908060030154908060040154908060050154908060060180546109fd90611a27565b80601f0160208091040260200160405190810160405280929190818152602001828054610a2990611a27565b8015610a765780601f10610a4b57610100808354040283529160200191610a76565b820191906000526020600020905b815481529060010190602001808311610a5957829003601f168201915b5050506008909301549192505060ff1688565b60606001600160a01b038316610ad45760405162461bcd60e51b815260206004820152601060248201526f24b73b30b634b2103932b1b2b4bb32b960811b604482015260640161028d565b6001600160a01b038316600090815260208190526040902054610b095760405162461bcd60e51b815260040161028d90611b6a565b6001600160a01b0383166000908152602081905260409020548210610b665760405162461bcd60e51b8152602060048201526013602482015272496e646578206f7574206f6620626f756e647360681b604482015260640161028d565b6001600160a01b0383166000908152602081905260408120805484908110610b9057610b90611a11565b600091825260208220600760099092020190810154909250908167ffffffffffffffff811115610bc257610bc2611605565b604051908082528060200260200182016040528015610c0757816020015b6040805180820190915260008082526020820152815260200190600190039081610be05790505b50905060005b82811015610c8f57836007018181548110610c2a57610c2a611a11565b60009182526020918290206040805180820190915260029092020180546001600160a01b0316825260010154918101919091528251839083908110610c7157610c71611a11565b60200260200101819052508080610c8790611be8565b915050610c0d565b50925050505b92915050565b610ca3611592565b6001600160a01b038316600090815260208190526040902054610d085760405162461bcd60e51b815260206004820152601d60248201527f4e6f2070726f6772616d7320666f72207468697320616464726573732e000000604482015260640161028d565b6001600160a01b0383166000908152602081905260409020548210610d665760405162461bcd60e51b815260206004820152601460248201527324b73232bc1037baba1037b3103137bab732399760611b604482015260640161028d565b6001600160a01b0383166000908152602081905260408120805484908110610d9057610d90611a11565b906000526020600020906009020190506000604051806101200160405280866001600160a01b03168152602001858152602001836001018054610dd290611a27565b80601f0160208091040260200160405190810160405280929190818152602001828054610dfe90611a27565b8015610e4b5780601f10610e2057610100808354040283529160200191610e4b565b820191906000526020600020905b815481529060010190602001808311610e2e57829003601f168201915b50505050508152602001836002018054610e6490611a27565b80601f0160208091040260200160405190810160405280929190818152602001828054610e9090611a27565b8015610edd5780601f10610eb257610100808354040283529160200191610edd565b820191906000526020600020905b815481529060010190602001808311610ec057829003601f168201915b505050505081526020018360030154815260200183600401548152602001836006018054610f0a90611a27565b80601f0160208091040260200160405190810160405280929190818152602001828054610f3690611a27565b8015610f835780601f10610f5857610100808354040283529160200191610f83565b820191906000526020600020905b815481529060010190602001808311610f6657829003601f168201915b50505091835250506005840154602082015260089093015460ff161515604090930192909252509392505050565b60013410156110175760405162461bcd60e51b815260206004820152602c60248201527f446f6e6174696f6e20616d6f756e742073686f756c642062652067726561746560448201526b72207468616e20312077656960a01b606482015260840161028d565b6001600160a01b0381166110605760405162461bcd60e51b815260206004820152601060248201526f24b73b30b634b2103932b1b2b4bb32b960811b604482015260640161028d565b6001600160a01b038116600090815260208190526040902080546110965760405162461bcd60e51b815260040161028d90611b6a565b805460009082906110a9906001906119fe565b815481106110b9576110b9611a11565b60009182526020909120600990910201600881015490915060ff166111185760405162461bcd60e51b815260206004820152601560248201527450726f6772616d206973206e6f742061637469766560581b604482015260640161028d565b8060050154421061113b5760405162461bcd60e51b815260040161028d90611b8e565b6004810154600382015433913491600091611155916119fe565b9050808211156111ad57600061116b82846119fe565b604051909150339082156108fc029083906000818181858888f1935050505015801561119b573d6000803e3d6000fd5b505060088401805460ff191690559050805b6040516001600160a01b0387169083156108fc029084906000818181858888f193505050501580156111e3573d6000803e3d6000fd5b50818460040160008282546111f89190611c01565b90915550506040805180820182526001600160a01b03858116808352602080840187815260078a018054600180820183556000928352918490209651600290910290960180546001600160a01b03191696861696909617865590519401939093558351908152908916918101919091529081018390527f70c6bc6cf53707fb5561feef795d557f7e46f57bd4f1a13ce36e9ffdf58d38bb9060600160405180910390a1505050505050565b600080805b60025481101561130b57600080600283815481106112c8576112c8611a11565b60009182526020808320909101546001600160a01b031683528201929092526040019020546112f79083611c01565b91508061130381611be8565b9150506112a8565b50919050565b6060600061131d6112a3565b67ffffffffffffffff81111561133557611335611605565b60405190808252806020026020018201604052801561136e57816020015b61135b611592565b8152602001906001900390816113535790505b5090506000805b6002548110156114465760005b6000806002848154811061139857611398611a11565b60009182526020808320909101546001600160a01b03168352820192909252604001902054811015611433576113f5600283815481106113da576113da611a11565b6000918252602090912001546001600160a01b031682610c9b565b84848151811061140757611407611a11565b6020026020010181905250828061141d90611be8565b935050808061142b90611be8565b915050611382565b508061143e81611be8565b915050611375565b509092915050565b6002818154811061145e57600080fd5b6000918252602090912001546001600160a01b0316905081565b33600090815260208190526040812080546114a55760405162461bcd60e51b815260040161028d90611b6a565b805460009082906114b8906001906119fe565b815481106114c8576114c8611a11565b60009182526020909120600990910201600881015490915060ff166115275760405162461bcd60e51b815260206004820152601560248201527450726f6772616d206973206e6f742061637469766560581b604482015260640161028d565b8060050154421061154a5760405162461bcd60e51b815260040161028d90611b8e565b60088101805460ff1916905560048101546040805133815260208101929092527fff168b07adee675b3f251c27e228153cf71b54d58d149051ced0dad8afffdb899101610871565b60405180610120016040528060006001600160a01b03168152602001600081526020016060815260200160608152602001600081526020016000815260200160608152602001600081526020016000151581525090565b80356001600160a01b038116811461160057600080fd5b919050565b634e487b7160e01b600052604160045260246000fd5b600082601f83011261162c57600080fd5b813567ffffffffffffffff8082111561164757611647611605565b604051601f8301601f19908116603f0116810190828211818310171561166f5761166f611605565b8160405283815286602085880101111561168857600080fd5b836020870160208301376000602085830101528094505050505092915050565b60008060008060008060c087890312156116c157600080fd5b6116ca876115e9565b9550602087013567ffffffffffffffff808211156116e757600080fd5b6116f38a838b0161161b565b9650604089013591508082111561170957600080fd5b6117158a838b0161161b565b9550606089013591508082111561172b57600080fd5b5061173889828a0161161b565b9350506080870135915060a087013590509295509295509295565b6000806040838503121561176657600080fd5b61176f836115e9565b946020939093013593505050565b6000815180845260005b818110156117a357602081850181015186830182015201611787565b506000602082860101526020601f19601f83011685010191505092915050565b6001600160a01b0389168152610100602082018190526000906117e88382018b61177d565b905082810360408401526117fc818a61177d565b90508760608401528660808401528560a084015282810360c0840152611822818661177d565b91505082151560e08301529998505050505050505050565b602080825282518282018190526000919060409081850190868401855b8281101561188557815180516001600160a01b03168552860151868501529284019290850190600101611857565b5091979650505050505050565b6000602082840312156118a457600080fd5b6118ad826115e9565b9392505050565b80516001600160a01b0316825260006101206020830151602085015260408301518160408601526118e78286018261177d565b91505060608301518482036060860152611901828261177d565b9150506080830151608085015260a083015160a085015260c083015184820360c086015261192f828261177d565b91505060e083015160e0850152610100808401516119508287018215159052565b5090949350505050565b6020815260006118ad60208301846118b4565b6000602080830181845280855180835260408601915060408160051b870101925083870160005b828110156119c257603f198886030184526119b08583516118b4565b94509285019290850190600101611994565b5092979650505050505050565b6000602082840312156119e157600080fd5b5035919050565b634e487b7160e01b600052601160045260246000fd5b81810381811115610c9557610c956119e8565b634e487b7160e01b600052603260045260246000fd5b600181811c90821680611a3b57607f821691505b60208210810361130b57634e487b7160e01b600052602260045260246000fd5b601f821115611aa557600081815260208120601f850160051c81016020861015611a825750805b601f850160051c820191505b81811015611aa157828155600101611a8e565b5050505b505050565b815167ffffffffffffffff811115611ac457611ac4611605565b611ad881611ad28454611a27565b84611a5b565b602080601f831160018114611b0d5760008415611af55750858301515b600019600386901b1c1916600185901b178555611aa1565b600085815260208120601f198616915b82811015611b3c57888601518255948401946001909101908401611b1d565b5085821015611b5a5787850151600019600388901b60f8161c191681555b5050505050600190811b01905550565b6020808252600a90820152694e6f2070726f6772616d60b01b604082015260600190565b602080825260139082015272111958591b1a5b99481a185cc81c185cdcd959606a1b604082015260600190565b600081611bca57611bca6119e8565b506000190190565b634e487b7160e01b600052603160045260246000fd5b600060018201611bfa57611bfa6119e8565b5060010190565b80820180821115610c9557610c956119e856fea26469706673582212200f310d0e003db2a3eb3d610310c24590f5b1be9ccca8fb4dbc69e4facf724f4564736f6c63430008110033",
  "linkReferences": {},
  "deployedLinkReferences": {}
}